{
  "address": "0x7d27eDe7291843a9c2D560555Cb28ce9E4DEfA0d",
  "abi": [
    {
      "inputs": [
        {
          "internalType": "address payable",
          "name": "diceGameAddress",
          "type": "address"
        }
      ],
      "stateMutability": "nonpayable",
      "type": "constructor"
    },
    {
      "inputs": [],
      "name": "NotEnoughEther",
      "type": "error"
    },
    {
      "anonymous": false,
      "inputs": [
        {
          "indexed": true,
          "internalType": "address",
          "name": "previousOwner",
          "type": "address"
        },
        {
          "indexed": true,
          "internalType": "address",
          "name": "newOwner",
          "type": "address"
        }
      ],
      "name": "OwnershipTransferred",
      "type": "event"
    },
    {
      "inputs": [],
      "name": "diceGame",
      "outputs": [
        {
          "internalType": "contract DiceGame",
          "name": "",
          "type": "address"
        }
      ],
      "stateMutability": "view",
      "type": "function"
    },
    {
      "inputs": [],
      "name": "nonce",
      "outputs": [
        {
          "internalType": "uint256",
          "name": "",
          "type": "uint256"
        }
      ],
      "stateMutability": "view",
      "type": "function"
    },
    {
      "inputs": [],
      "name": "owner",
      "outputs": [
        {
          "internalType": "address",
          "name": "",
          "type": "address"
        }
      ],
      "stateMutability": "view",
      "type": "function"
    },
    {
      "inputs": [],
      "name": "renounceOwnership",
      "outputs": [],
      "stateMutability": "nonpayable",
      "type": "function"
    },
    {
      "inputs": [],
      "name": "riggedRoll",
      "outputs": [],
      "stateMutability": "nonpayable",
      "type": "function"
    },
    {
      "inputs": [
        {
          "internalType": "address",
          "name": "newOwner",
          "type": "address"
        }
      ],
      "name": "transferOwnership",
      "outputs": [],
      "stateMutability": "nonpayable",
      "type": "function"
    },
    {
      "inputs": [
        {
          "internalType": "address",
          "name": "_addr",
          "type": "address"
        },
        {
          "internalType": "uint256",
          "name": "_amount",
          "type": "uint256"
        }
      ],
      "name": "withdraw",
      "outputs": [],
      "stateMutability": "nonpayable",
      "type": "function"
    },
    {
      "stateMutability": "payable",
      "type": "receive"
    }
  ],
  "transactionHash": "0x42a0b85362dbed29b7c621b72956d1f9d24b2b2062ced6c81583bbcd67d05a3e",
  "args": [
    "0xF26B8Ec80b6bbCa6A51D8f2b3a85da902D187f82"
  ],
  "numDeployments": 1,
  "solcInputHash": "5f370f72dc94788da1cfbf3f8a62bd38",
  "bytecode": "0x6080604052600060015534801561001557600080fd5b506040516107bc3803806107bc833981016040819052610034916100b2565b61003d33610062565b600280546001600160a01b0319166001600160a01b03929092169190911790556100e2565b600080546001600160a01b038381166001600160a01b0319831681178455604051919092169283917f8be0079c531659141344cd1fd0a4f28419497f9722a3daafe3b4186f6b6457e09190a35050565b6000602082840312156100c457600080fd5b81516001600160a01b03811681146100db57600080fd5b9392505050565b6106cb806100f16000396000f3fe6080604052600436106100745760003560e01c80638e288fd11161004e5780638e288fd1146100e3578063affed0e014610103578063f2fde38b14610127578063f3fef3a31461014757600080fd5b80636b5e97f814610080578063715018a6146100975780638da5cb5b146100ac57600080fd5b3661007b57005b600080fd5b34801561008c57600080fd5b50610095610167565b005b3480156100a357600080fd5b50610095610302565b3480156100b857600080fd5b506000546001600160a01b03165b6040516001600160a01b0390911681526020015b60405180910390f35b3480156100ef57600080fd5b506002546100c6906001600160a01b031681565b34801561010f57600080fd5b5061011960015481565b6040519081526020016100da565b34801561013357600080fd5b50610095610142366004610563565b610316565b34801561015357600080fd5b50610095610162366004610585565b61038f565b66071afd498d000047101561017b57600080fd5b60006101886001436105c5565b6002546001546040805193406020850181905260609390931b6bffffffffffffffffffffffff1916908401526054830152915060009060740160408051601f198184030181529190528051602090910120905060006101e86010836105de565b9050610233604051806040016040528060018152602001600960f81b8152506040518060400160405280600d81526020016c102934b3b3b2b2102937b6361d60991b81525083610431565b6001805490600061024383610600565b9190505550600581116102c557600260009054906101000a90046001600160a01b03166001600160a01b0316637d789dee66071afd498d00006040518263ffffffff1660e01b81526004016000604051808303818588803b1580156102a757600080fd5b505af11580156102bb573d6000803e3d6000fd5b5050505050505050565b60405162461bcd60e51b8152602060048201526008602482015267109859081c9bdb1b60c21b60448201526064015b60405180910390fd5b505050565b61030a610478565b61031460006104d2565b565b61031e610478565b6001600160a01b0381166103835760405162461bcd60e51b815260206004820152602660248201527f4f776e61626c653a206e6577206f776e657220697320746865207a65726f206160448201526564647265737360d01b60648201526084016102f4565b61038c816104d2565b50565b610397610478565b6000826001600160a01b03168260405160006040518083038185875af1925050503d80600081146103e4576040519150601f19603f3d011682016040523d82523d6000602084013e6103e9565b606091505b50509050806102fd5760405162461bcd60e51b81526020600482015260146024820152732330b4b632b2103a379039b2b7321022ba3432b960611b60448201526064016102f4565b6102fd8383836040516024016104499392919061065f565b60408051601f198184030181529190526020810180516001600160e01b0316635821efa160e01b179052610522565b6000546001600160a01b031633146103145760405162461bcd60e51b815260206004820181905260248201527f4f776e61626c653a2063616c6c6572206973206e6f7420746865206f776e657260448201526064016102f4565b600080546001600160a01b038381166001600160a01b0319831681178455604051919092169283917f8be0079c531659141344cd1fd0a4f28419497f9722a3daafe3b4186f6b6457e09190a35050565b61038c8160006a636f6e736f6c652e6c6f679050600080835160208501845afa505050565b80356001600160a01b038116811461055e57600080fd5b919050565b60006020828403121561057557600080fd5b61057e82610547565b9392505050565b6000806040838503121561059857600080fd5b6105a183610547565b946020939093013593505050565b634e487b7160e01b600052601160045260246000fd5b818103818111156105d8576105d86105af565b92915050565b6000826105fb57634e487b7160e01b600052601260045260246000fd5b500690565b600060018201610612576106126105af565b5060010190565b6000815180845260005b8181101561063f57602081850181015186830182015201610623565b506000602082860101526020601f19601f83011685010191505092915050565b6060815260006106726060830186610619565b82810360208401526106848186610619565b91505082604083015294935050505056fea2646970667358221220a2e9acff4b04dd572ce3ab47546ab43fcf57bb7de4e110be5dbf4a177674748764736f6c63430008110033",
  "devdoc": {
    "kind": "dev",
    "methods": {
      "owner()": {
        "details": "Returns the address of the current owner."
      },
      "renounceOwnership()": {
        "details": "Leaves the contract without owner. It will not be possible to call `onlyOwner` functions anymore. Can only be called by the current owner. NOTE: Renouncing ownership will leave the contract without an owner, thereby removing any functionality that is only available to the owner."
      },
      "transferOwnership(address)": {
        "details": "Transfers ownership of the contract to a new account (`newOwner`). Can only be called by the current owner."
      }
    },
    "version": 1
  },
  "userdoc": {
    "kind": "user",
    "methods": {},
    "version": 1
  },
  "storageLayout": {
    "storage": [
      {
        "astId": 7,
        "contract": "contracts/RiggedRoll.sol:RiggedRoll",
        "label": "_owner",
        "offset": 0,
        "slot": "0",
        "type": "t_address"
      },
      {
        "astId": 308,
        "contract": "contracts/RiggedRoll.sol:RiggedRoll",
        "label": "nonce",
        "offset": 0,
        "slot": "1",
        "type": "t_uint256"
      },
      {
        "astId": 311,
        "contract": "contracts/RiggedRoll.sol:RiggedRoll",
        "label": "diceGame",
        "offset": 0,
        "slot": "2",
        "type": "t_contract(DiceGame)298"
      }
    ],
    "types": {
      "t_address": {
        "encoding": "inplace",
        "label": "address",
        "numberOfBytes": "20"
      },
      "t_contract(DiceGame)298": {
        "encoding": "inplace",
        "label": "contract DiceGame",
        "numberOfBytes": "20"
      },
      "t_uint256": {
        "encoding": "inplace",
        "label": "uint256",
        "numberOfBytes": "32"
      }
    }
  }
}