{
  "address": "0x820bf37Da4f86f0C1c93e8f09418BEFb2A4d19Bf",
  "abi": [
    {
      "inputs": [
        {
          "internalType": "address",
          "name": "exampleExternalContractAddress",
          "type": "address"
        }
      ],
      "stateMutability": "nonpayable",
      "type": "constructor"
    },
    {
      "anonymous": false,
      "inputs": [
        {
          "indexed": false,
          "internalType": "address",
          "name": "",
          "type": "address"
        },
        {
          "indexed": false,
          "internalType": "uint256",
          "name": "",
          "type": "uint256"
        }
      ],
      "name": "Stake",
      "type": "event"
    },
    {
      "inputs": [
        {
          "internalType": "address",
          "name": "",
          "type": "address"
        }
      ],
      "name": "balances",
      "outputs": [
        {
          "internalType": "uint256",
          "name": "",
          "type": "uint256"
        }
      ],
      "stateMutability": "view",
      "type": "function"
    },
    {
      "inputs": [],
      "name": "deadline",
      "outputs": [
        {
          "internalType": "uint256",
          "name": "",
          "type": "uint256"
        }
      ],
      "stateMutability": "view",
      "type": "function"
    },
    {
      "inputs": [],
      "name": "exampleExternalContract",
      "outputs": [
        {
          "internalType": "contract ExampleExternalContract",
          "name": "",
          "type": "address"
        }
      ],
      "stateMutability": "view",
      "type": "function"
    },
    {
      "inputs": [],
      "name": "execute",
      "outputs": [],
      "stateMutability": "nonpayable",
      "type": "function"
    },
    {
      "inputs": [],
      "name": "executed",
      "outputs": [
        {
          "internalType": "bool",
          "name": "",
          "type": "bool"
        }
      ],
      "stateMutability": "view",
      "type": "function"
    },
    {
      "inputs": [],
      "name": "openForWithdraw",
      "outputs": [
        {
          "internalType": "bool",
          "name": "",
          "type": "bool"
        }
      ],
      "stateMutability": "view",
      "type": "function"
    },
    {
      "inputs": [],
      "name": "stake",
      "outputs": [],
      "stateMutability": "payable",
      "type": "function"
    },
    {
      "inputs": [],
      "name": "threshold",
      "outputs": [
        {
          "internalType": "uint256",
          "name": "",
          "type": "uint256"
        }
      ],
      "stateMutability": "view",
      "type": "function"
    },
    {
      "inputs": [],
      "name": "timeLeft",
      "outputs": [
        {
          "internalType": "uint256",
          "name": "",
          "type": "uint256"
        }
      ],
      "stateMutability": "view",
      "type": "function"
    },
    {
      "inputs": [],
      "name": "withdraw",
      "outputs": [],
      "stateMutability": "payable",
      "type": "function"
    },
    {
      "stateMutability": "payable",
      "type": "receive"
    }
  ],
  "transactionHash": "0x10f8e8e5e0dc011174106879bcad22a56e8daef643776136001fe615167fc80f",
  "args": [
    "0xb645BE38a0613C3dF4A84CE3658aF7281b8822f8"
  ],
  "numDeployments": 1,
  "solcInputHash": "f7ba2224fd66550cdf4c8b3fb88616aa",
  "bytecode": "0x6080604052610011426203f480610092565b60025534801561002057600080fd5b5060405161073338038061073383398101604081905261003f91610064565b600080546001600160a01b0319166001600160a01b03929092169190911790556100b6565b600060208284031215610075578081fd5b81516001600160a01b038116811461008b578182fd5b9392505050565b600082198211156100b157634e487b7160e01b81526011600452602481fd5b500190565b61066e806100c56000396000f3fe6080604052600436106100955760003560e01c80633ccfd60b116100595780633ccfd60b1461014b57806342cde4e814610153578063614619541461016f5780639876a643146101845780639f75f2271461019e57600080fd5b80631300a6d1146100a957806327e235e3146100d157806329dcb0cf146100fe57806331a38c89146101145780633a4b66f11461014357600080fd5b366100a4576100a26101d6565b005b600080fd5b3480156100b557600080fd5b506100be610278565b6040519081526020015b60405180910390f35b3480156100dd57600080fd5b506100be6100ec3660046105c7565b60016020526000908152604090205481565b34801561010a57600080fd5b506100be60025481565b34801561012057600080fd5b5060035461013390610100900460ff1681565b60405190151581526020016100c8565b6100a26101d6565b6100a261029c565b34801561015f57600080fd5b506100be670de0b6b3a764000081565b34801561017b57600080fd5b506100a2610449565b34801561019057600080fd5b506003546101339060ff1681565b3480156101aa57600080fd5b506000546101be906001600160a01b031681565b6040516001600160a01b0390911681526020016100c8565b60035460ff6101009091041615156001141561022a5760405162461bcd60e51b815260206004820152600e60248201526d446561646c696e65206f7665722160901b60448201526064015b60405180910390fd5b3360008181526001602090815260409182902034908190558251938452908301527febedb8b3c678666e7f36970bc8f57abf6d8fa2e828c0da91ea5b75bf68ed101a910160405180910390a1565b600060025442106102895750600090565b426002546102979190610615565b905090565b60008054906101000a90046001600160a01b03166001600160a01b0316639d9a7fe96040518163ffffffff1660e01b815260040160206040518083038186803b1580156102e857600080fd5b505afa1580156102fc573d6000803e3d6000fd5b505050506040513d601f19601f8201168201806040525081019061032091906105f5565b1561035d5760405162461bcd60e51b815260206004820152600d60248201526c139bdd0818dbdb5c1b195d1959609a1b6044820152606401610221565b3360009081526001602052604090205461037657600080fd5b60035460ff61010090910416151560011480159061039c5750670de0b6b3a76400004711155b6103a557600080fd5b33600081815260016020526040808220549051919283929091908381818185875af1925050503d80600081146103f7576040519150601f19603f3d011682016040523d82523d6000602084013e6103fc565b606091505b5091509150816104455760405162461bcd60e51b81526020600482015260146024820152732330b4b632b2103a379039b2b7321022ba3432b960611b6044820152606401610221565b5050565b60008054906101000a90046001600160a01b03166001600160a01b0316639d9a7fe96040518163ffffffff1660e01b815260040160206040518083038186803b15801561049557600080fd5b505afa1580156104a9573d6000803e3d6000fd5b505050506040513d601f19601f820116820180604052508101906104cd91906105f5565b1561050a5760405162461bcd60e51b815260206004820152600d60248201526c139bdd0818dbdb5c1b195d1959609a1b6044820152606401610221565b600254421180156105235750670de0b6b3a76400004710155b61052c57600080fd5b670de0b6b3a764000047106105b75760008054906101000a90046001600160a01b03166001600160a01b031663522e1177476040518263ffffffff1660e01b81526004016000604051808303818588803b15801561058957600080fd5b505af115801561059d573d6000803e3d6000fd5b50506003805461ff001916610100179055506105c5915050565b6003805460ff191660011790555b565b6000602082840312156105d8578081fd5b81356001600160a01b03811681146105ee578182fd5b9392505050565b600060208284031215610606578081fd5b815180151581146105ee578182fd5b60008282101561063357634e487b7160e01b81526011600452602481fd5b50039056fea26469706673582212209dd1332493643ba713e95a8afd62f9701cb0d7c489f4158af29d298523c3c2dc64736f6c63430008040033",
  "devdoc": {
    "kind": "dev",
    "methods": {},
    "version": 1
  },
  "userdoc": {
    "kind": "user",
    "methods": {},
    "version": 1
  },
  "storageLayout": {
    "storage": [
      {
        "astId": 104,
        "contract": "contracts/Staker.sol:Staker",
        "label": "exampleExternalContract",
        "offset": 0,
        "slot": "0",
        "type": "t_contract(ExampleExternalContract)90"
      },
      {
        "astId": 146,
        "contract": "contracts/Staker.sol:Staker",
        "label": "balances",
        "offset": 0,
        "slot": "1",
        "type": "t_mapping(t_address,t_uint256)"
      },
      {
        "astId": 181,
        "contract": "contracts/Staker.sol:Staker",
        "label": "deadline",
        "offset": 0,
        "slot": "2",
        "type": "t_uint256"
      },
      {
        "astId": 183,
        "contract": "contracts/Staker.sol:Staker",
        "label": "openForWithdraw",
        "offset": 0,
        "slot": "3",
        "type": "t_bool"
      },
      {
        "astId": 185,
        "contract": "contracts/Staker.sol:Staker",
        "label": "executed",
        "offset": 1,
        "slot": "3",
        "type": "t_bool"
      }
    ],
    "types": {
      "t_address": {
        "encoding": "inplace",
        "label": "address",
        "numberOfBytes": "20"
      },
      "t_bool": {
        "encoding": "inplace",
        "label": "bool",
        "numberOfBytes": "1"
      },
      "t_contract(ExampleExternalContract)90": {
        "encoding": "inplace",
        "label": "contract ExampleExternalContract",
        "numberOfBytes": "20"
      },
      "t_mapping(t_address,t_uint256)": {
        "encoding": "mapping",
        "key": "t_address",
        "label": "mapping(address => uint256)",
        "numberOfBytes": "32",
        "value": "t_uint256"
      },
      "t_uint256": {
        "encoding": "inplace",
        "label": "uint256",
        "numberOfBytes": "32"
      }
    }
  }
}