{
  "address": "0x3F87373B3cD44fa8B9b199b0f85dd16Bd0d30755",
  "abi": [
    {
      "inputs": [
        {
          "internalType": "address",
          "name": "tokenAddress",
          "type": "address"
        }
      ],
      "stateMutability": "nonpayable",
      "type": "constructor"
    },
    {
      "anonymous": false,
      "inputs": [
        {
          "indexed": false,
          "internalType": "address",
          "name": "buyer",
          "type": "address"
        },
        {
          "indexed": false,
          "internalType": "uint256",
          "name": "amountOfETH",
          "type": "uint256"
        },
        {
          "indexed": false,
          "internalType": "uint256",
          "name": "amountOfTokens",
          "type": "uint256"
        }
      ],
      "name": "BuyTokens",
      "type": "event"
    },
    {
      "anonymous": false,
      "inputs": [
        {
          "indexed": true,
          "internalType": "address",
          "name": "previousOwner",
          "type": "address"
        },
        {
          "indexed": true,
          "internalType": "address",
          "name": "newOwner",
          "type": "address"
        }
      ],
      "name": "OwnershipTransferred",
      "type": "event"
    },
    {
      "anonymous": false,
      "inputs": [
        {
          "indexed": false,
          "internalType": "address",
          "name": "seller",
          "type": "address"
        },
        {
          "indexed": false,
          "internalType": "uint256",
          "name": "amountOfTokens",
          "type": "uint256"
        },
        {
          "indexed": false,
          "internalType": "uint256",
          "name": "amountOfETH",
          "type": "uint256"
        }
      ],
      "name": "SellTokens",
      "type": "event"
    },
    {
      "inputs": [],
      "name": "buyTokens",
      "outputs": [],
      "stateMutability": "payable",
      "type": "function"
    },
    {
      "inputs": [],
      "name": "owner",
      "outputs": [
        {
          "internalType": "address",
          "name": "",
          "type": "address"
        }
      ],
      "stateMutability": "view",
      "type": "function"
    },
    {
      "inputs": [],
      "name": "renounceOwnership",
      "outputs": [],
      "stateMutability": "nonpayable",
      "type": "function"
    },
    {
      "inputs": [
        {
          "internalType": "uint256",
          "name": "amount",
          "type": "uint256"
        }
      ],
      "name": "sellTokens",
      "outputs": [],
      "stateMutability": "nonpayable",
      "type": "function"
    },
    {
      "inputs": [],
      "name": "tokensPerEth",
      "outputs": [
        {
          "internalType": "uint256",
          "name": "",
          "type": "uint256"
        }
      ],
      "stateMutability": "view",
      "type": "function"
    },
    {
      "inputs": [
        {
          "internalType": "address",
          "name": "newOwner",
          "type": "address"
        }
      ],
      "name": "transferOwnership",
      "outputs": [],
      "stateMutability": "nonpayable",
      "type": "function"
    },
    {
      "inputs": [],
      "name": "withdraw",
      "outputs": [],
      "stateMutability": "payable",
      "type": "function"
    },
    {
      "inputs": [],
      "name": "yourToken",
      "outputs": [
        {
          "internalType": "contract YourToken",
          "name": "",
          "type": "address"
        }
      ],
      "stateMutability": "view",
      "type": "function"
    }
  ],
  "transactionHash": "0x0a51c599c8a1993beb9f046783e889bc918b103b6c18d2105467569c33318822",
  "args": [
    "0x922999496D7801f86fD20c99e673222c5812624A"
  ],
  "numDeployments": 2,
  "solcInputHash": "64049bd7f916a3d7f3ed986c9455c2de",
  "bytecode": "0x608060405234801561001057600080fd5b5060405161073f38038061073f83398101604081905261002f916100ad565b6100383361005d565b600180546001600160a01b0319166001600160a01b03929092169190911790556100db565b600080546001600160a01b038381166001600160a01b0319831681178455604051919092169283917f8be0079c531659141344cd1fd0a4f28419497f9722a3daafe3b4186f6b6457e09190a35050565b6000602082840312156100be578081fd5b81516001600160a01b03811681146100d4578182fd5b9392505050565b610655806100ea6000396000f3fe60806040526004361061007b5760003560e01c80638da5cb5b1161004e5780638da5cb5b146100fc578063cbdd69b51461011a578063d0febe4c1461013d578063f2fde38b1461014557600080fd5b80633ccfd60b146100805780636c11bcd31461008a578063715018a6146100aa5780637879e84b146100bf575b600080fd5b610088610165565b005b34801561009657600080fd5b506100886100a53660046105bc565b6101e7565b3480156100b657600080fd5b50610088610364565b3480156100cb57600080fd5b506001546100df906001600160a01b031681565b6040516001600160a01b0390911681526020015b60405180910390f35b34801561010857600080fd5b506000546001600160a01b03166100df565b34801561012657600080fd5b5061012f606481565b6040519081526020016100f3565b610088610378565b34801561015157600080fd5b5061008861016036600461056e565b61044e565b61016d6104c4565b6000546001600160a01b031633146101b85760405162461bcd60e51b81526020600482015260096024820152683737ba1037bbb732b960b91b60448201526064015b60405180910390fd5b60405133904780156108fc02916000818181858888f193505050501580156101e4573d6000803e3d6000fd5b50565b6001546040516323b872dd60e01b8152336004820152306024820152604481018390526001600160a01b03909116906323b872dd90606401602060405180830381600087803b15801561023957600080fd5b505af115801561024d573d6000803e3d6000fd5b505050506040513d601f19601f82011682018060405250810190610271919061059c565b50600061027f6064836105d4565b9050600080336001600160a01b03168360405160006040518083038185875af1925050503d80600081146102cf576040519150601f19603f3d011682016040523d82523d6000602084013e6102d4565b606091505b50915091508161031d5760405162461bcd60e51b81526020600482015260146024820152732330b4b632b2103a379039b2b7321022ba3432b960611b60448201526064016101af565b60408051338152602081018690529081018490527fa24838acd4af5195a2396965dae5abf54e84e8c19f5698bb966ae64e29994ee59060600160405180910390a150505050565b61036c6104c4565b610376600061051e565b565b60006103856064346105f4565b60015460405163a9059cbb60e01b8152336004820152602481018390529192506001600160a01b03169063a9059cbb90604401602060405180830381600087803b1580156103d257600080fd5b505af11580156103e6573d6000803e3d6000fd5b505050506040513d601f19601f8201168201806040525081019061040a919061059c565b50604080513381523460208201529081018290527f0a37b72bb67eee30e09084cf386f8a17817c57f620c3ab95fb25d6a20356ec779060600160405180910390a150565b6104566104c4565b6001600160a01b0381166104bb5760405162461bcd60e51b815260206004820152602660248201527f4f776e61626c653a206e6577206f776e657220697320746865207a65726f206160448201526564647265737360d01b60648201526084016101af565b6101e48161051e565b6000546001600160a01b031633146103765760405162461bcd60e51b815260206004820181905260248201527f4f776e61626c653a2063616c6c6572206973206e6f7420746865206f776e657260448201526064016101af565b600080546001600160a01b038381166001600160a01b0319831681178455604051919092169283917f8be0079c531659141344cd1fd0a4f28419497f9722a3daafe3b4186f6b6457e09190a35050565b60006020828403121561057f578081fd5b81356001600160a01b0381168114610595578182fd5b9392505050565b6000602082840312156105ad578081fd5b81518015158114610595578182fd5b6000602082840312156105cd578081fd5b5035919050565b6000826105ef57634e487b7160e01b81526012600452602481fd5b500490565b600081600019048311821515161561061a57634e487b7160e01b81526011600452602481fd5b50029056fea26469706673582212202a95b55ab6d42804719c5c9b24b00ee031ff64af4de49cee89a70ccf6c0a940764736f6c63430008040033",
  "devdoc": {
    "kind": "dev",
    "methods": {
      "owner()": {
        "details": "Returns the address of the current owner."
      },
      "renounceOwnership()": {
        "details": "Leaves the contract without owner. It will not be possible to call `onlyOwner` functions anymore. Can only be called by the current owner. NOTE: Renouncing ownership will leave the contract without an owner, thereby removing any functionality that is only available to the owner."
      },
      "transferOwnership(address)": {
        "details": "Transfers ownership of the contract to a new account (`newOwner`). Can only be called by the current owner."
      }
    },
    "version": 1
  },
  "userdoc": {
    "kind": "user",
    "methods": {},
    "version": 1
  },
  "storageLayout": {
    "storage": [
      {
        "astId": 7,
        "contract": "contracts/Vendor.sol:Vendor",
        "label": "_owner",
        "offset": 0,
        "slot": "0",
        "type": "t_address"
      },
      {
        "astId": 849,
        "contract": "contracts/Vendor.sol:Vendor",
        "label": "yourToken",
        "offset": 0,
        "slot": "1",
        "type": "t_contract(YourToken)1016"
      }
    ],
    "types": {
      "t_address": {
        "encoding": "inplace",
        "label": "address",
        "numberOfBytes": "20"
      },
      "t_contract(YourToken)1016": {
        "encoding": "inplace",
        "label": "contract YourToken",
        "numberOfBytes": "20"
      }
    }
  }
}